:020000040800F2
:100000000040012089200008D1200008D1200008EC
:10001000D1200008D1200008D120000800000000F5
:10002000000000000000000000000000D1200008D7
:10003000D120000800000000D12000084F14000863
:10004000D1200008D1200008D1200008D1200008CC
:10005000D1200008D1200008111F0008171F000838
:100060001D1F0008231F0008291F0008D1200008B9
:10007000D1200008D1200008D1200008D12000089C
:10008000D1200008D1200008D1200008D12000088C
:10009000D1200008D1200008D12000082F1F00081F
:1000A000D1200008892800089D280008B1280008F0
:1000B000112800082528000839280008D120000848
:1000C000D1200008D1200008D1200008D12000084C
:1000D000D1200008911D0008A91D0008C51D0008B9
:1000E000451F0008D1200008D12000086128000821
:1000F00075280008000000004D280008D1200008E5
:10010000E11D0008F91D0008D1200008D1200008D9
:10011000D1200008D1200008D120000800000000F4
:10012000D1200008000000000000000000000000D6
:0C01300000000000000000005FF808F173
:10013C00034613F8012B002AFBD1181A013870471B
:10014C0053B94AB9002908BF00281CBF4FF0FF3132
:10015C004FF0FF3000F00CB8ADF1080C6DE904CE97
:10016C0002F014FEDDF804E0DDE9022304B0704770
:10017C00704700BF10B5054C237833B9044B13B14D
:10018C000448AFF300800123237010BD94000020BD
:10019C00000000007430000808B5034B1BB1034984
:1001AC000348AFF3008008BD000000009800002059
:1001BC007430000808B50121D22001F085FFBDE89C
:1001CC00084006224FF41651014802F0D9B900BF7D
:1001DC000802002010B50D4C0121D22001F0E4FFE3
:1001EC000B49204602F0D6FB4FF47A7002F016F859
:1001FC000021D22001F0D8FF2046064902F0CAFBAC
:10020C00BDE810404FF47A7002F008B808020020E4
:10021C008C3000089230000803460A4910B5086873
:10022C000344EFF30882934205D90C224FF0FF30C0
:10023C00054B1A6010BD054A054C121B9342F4D2B3
:10024C000B60F7E700000020600300200040012055
:10025C0000040000FEE700001622024B4FF0FF30B6
:10026C001A6070476003002001207047704700003F
:10027C0038B50F4B0546186808B9012038BD4FF446
:10028C007A73B3FBF0F30B4A1068B0FBF3F000F099
:10029C00A7F804460028F0D10F2DEED802462946C7
:1002AC004FF0FF3000F048F8034B20461D60E5E7A7
:1002BC00040000202C000020080000200B4B10B57F
:1002CC001A68032042F004021A601A6842F0020213
:1002DC001A6000F01FF80020FFF7CAFF044618B997
:1002EC00FFF7C4FF204610BD0124FBE7003C024091
:1002FC00034A0449136809680B441360704700BF34
:10030C00B000002004000020014B1868704700BFAB
:10031C00B000002007490302CA6803F4E06322F42A
:10032C00E0621204120C134343F0BF6343F4003336
:10033C00CB60704700ED00E0164B30B5DC68C4F3C1
:10034C000224C4F10703251D042B28BF0423062D0A
:10035C004FF0FF3598BF002405FA03F388BF033C28
:10036C0021EA0303A34005FA04F422EA040200285C
:10037C0043EA0203ACBF00F16040074A4FEA0313A3
:10038C00DBB2ABBF00F5614000F00F0080F800332A
:10039C00135430BD00ED00E014ED00E0002808DB44
:1003AC000123420900F01F0003FA00F0014B43F84F
:1003BC002200704700E100E000280DDB0122430918
:1003CC0000F01F0002FA00F0044A203342F8230028
:1003DC00BFF34F8FBFF36F8F704700BF00E100E09A
:1003EC000138B0F1807F0BD24FF0E023F021054AA9
:1003FC00586182F823100020072298611A61704717
:10040C000120704700ED00E0002809DB01224309C0
:10041C0000F01F0002FA00F0024A603342F8230099
:10042C00704700BF00E100E0704708B5FFF7FCFF24
:10043C0008BD10B5044640B10223037101F0E2FC83
:10044C00002020616071207110BD0120FCE70122A9
:10045C0010B5046801F01001236802FA01F123EAD7
:10046C00010121600271002010BD90F82130022B97
:10047C0006D004238363002380F8203001207047CA
:10048C0003681A6822F00E021A601A6822F0010240
:10049C001A600122D0E90F1303F01C0302FA03F3D4
:1004AC004B60002380F8212080F8203018467047DC
:1004BC0010B590F82120022A03D004228263012077
:1004CC0010BD0268436B116821F00E0111601168B8
:1004DC0021F0010111600121D0E90F4202F01C0250
:1004EC0001FA02F26260002480F8211080F82040AA
:1004FC0013B198472046E3E71846E1E7044A08B5EC
:10050C005169014202D0506101F0E6FC08BD00BF08
:10051C00000401401C4B82B09A6812F0F00F0CD012
:10052C0000221A490B6823F0010313430B6008687F
:10053C0000F00100504002B070475A6A144912F0A2
:10054C00805F0FD00A6802F4C052B2F5C05FE7D1E9
:10055C00B0F5404FE4D10D4A136843F00403136027
:10056C000122DEE75A6A42F080525A625A6A02F05D
:10057C0080520192019A0A68596A02F4C05221F021
:10058C0080515962E1E700BF00380240003C024054
:10059C00007000402DE9F7430446002860D0914BD1
:1005AC0002689E689F68D00706F00C0607F4803737
:1005BC004BD42368990700F197802368D80636D569
:1005CC00002E40F0E080874D2B68990502D5A36979
:1005DC00002B45D06B68206A03F46043984240F2CC
:1005EC00C080FFF797FF00283AD16B68226A23F48A
:1005FC00604313436B606B68E26923F07F4343EA0B
:10060C0002636B60774B9968236A5B0B5A1C4FF43F
:10061C0000439340C1F3031273498A5CD340734A7D
:10062C001360734B1868FFF723FE002830D1236842
:10063C00180700F1E1802368590700F10181606A15
:10064C00002840F06981002022E0082E02D00C2EF8
:10065C0008D13FB11B689A03ABD56368002BA8D1B6
:10066C00012015E06268012A15D11A6842F4803223
:10067C001A60FFF749FE0546DFF86881D8F80030AC
:10068C009B0396D4FFF740FE401B6428F6D9032049
:10069C0003B0BDE8F083534D2B68A2B923F480332B
:1006AC002B602B6823F480232B60FFF72DFE8046F4
:1006BC002B6898037FF57DAFFFF726FEA0EB0800B3
:1006CC006428F5D9E3E7052A0BBF43F4802323F410
:1006DC0080332B602B600BBF2B682B6843F480336B
:1006EC0023F480232B60C4E7042E02D00C2E0FD1F0
:1006FC0077B93C4A1368990702D5E368012BAFD14F
:10070C005368216923F4F85343EA0123536054E7F7
:10071C00E268384BB2B101221A60FFF7F5FD0746CB
:10072C00304D2B689A0707D56B68226923F4F85370
:10073C0043EA02236B6040E7FFF7E6FDC01B02288B
:10074C00EFD9A4E71A60FFF7DFFD0546254F3B689C
:10075C009B077FF532AFFFF7D7FD401B0228F6D978
:10076C0095E76B6823F4604303436B606B68E26945
:10077C0023F07F4343EA02636B60FFF7CBFE002854
:10078C003FF440AF6CE7A2691A4BE2B101221A6246
:10079C00FFF7BAFD0746134D2B689A050DD56B680C
:1007AC00226A23F4604313436B606B68E26923F0A5
:1007BC007F4343EA02636B6039E7FFF7A5FDC01B7B
:1007CC000228E9D963E71A62FFF79EFD0546054F3B
:1007DC003B689B057FF52BAFFFF796FD401B02286E
:1007EC00F6D954E7003802404C3100082C000020A8
:1007FC0008000020000047426269724B82B101225E
:10080C00C3F88026FFF780FD05466F4F7B6B9A0778
:10081C003FF511AFFFF778FD401B0228F6D936E7FC
:10082C00C3F88026FFF770FD0546674F7B6B9B076F
:10083C007FF501AFFFF768FD401B0228F6D926E7CC
:10084C00614B5A6AD00029D44FF001085A6A42F021
:10085C0080525A625B6A03F080530193019B5B4D9B
:10086C002B68D9051DD5A368574D012B29D16B6B6E
:10087C0043F480736B63FFF747FD41F288390546FB
:10088C00514F7B6B9B0541D5B8F1000F3FF4D7AEB0
:10089C004D4A536A23F080535362D0E64FF0000860
:1008AC00DDE72B6843F480732B60FFF72DFD0746C3
:1008BC002B68DA05D7D4FFF727FDC01B6428F7D9BE
:1008CC00E5E6ABB96B6B41F2883923F480736B634B
:1008DC006B6B23F480636B63FFF716FD07466B6B42
:1008EC009805D1D5FFF710FDC01B4845F7D9CEE6CA
:1008FC00052B6B6B03D143F480636B63B7E723F475
:10090C0080736B636B6B23F48063B3E7FFF7FCFCC2
:10091C00401B4845B5D9BAE60C2E3AD00022294BDB
:10092C0002281A6627D1FFF7EFFC0646264D2B68E6
:10093C0099011AD4AA68D4E90A3122F47D020B4336
:10094C001343226B13430122AB601E4B1E4D1A66E0
:10095C00FFF7DAFC04462B689A013FF574AEFFF7FB
:10096C00D3FC001B0228F6D991E6FFF7CDFC801BC7
:10097C000228DCD98BE6FFF7C7FC0446124D2B6826
:10098C009B017FF560AEFFF7BFFC001B0228F6D978
:10099C007DE601283FF47CAE0B4BA26A9B6803F406
:1009AC00803191427FF45CAEE16A03F470128A42AA
:1009BC007FF456AE226B03F4400393423FF443AEF4
:1009CC004EE600BF00004742003802400070004075
:1009DC0008B5154B9A6802F00C01082921D00C2996
:1009EC0003D0042915D1114812E09B68104813F468
:1009FC008033C2F38341415C14BF0E480B48C2F3F1
:100A0C00815218BF0023A1FB00010132FFF798FBB4
:100A1C0008BD5868C0F34230431C4FF40040984066
:100A2C00F6E70448F4E700BF003802400024F40065
:100A3C006431000800127A002DE9F0410D4604469D
:100A4C0010B90120BDE8F081574B1A6802F0010281
:100A5C008A422AD32268960738D4D0073ED4524B08
:100A6C001A6802F00102AA4200F28C802268510737
:100A7C0000F19180130707D54C4A2169936823F440
:100A8C00605343EAC1039360FFF7A2FFBDE8F04156
:100A9C00464B474A9B68C3F30313D35CD840454B82
:100AAC001860454B1868FFF7E3BB012902BF1A68B1
:100ABC0042F004021A601A6822F001020A431A601A
:100ACC001B6803F001038B42BBD1C3E73749A06815
:100ADC008B6823F0F00303438B60BEE76268334BF3
:100AEC00022A1B681CD113F4003FAAD02F4E41F2EE
:100AFC008838B36823F003031343B360FFF704FC97
:100B0C0063680746022B18D1B36803F00C03082B5B
:100B1C00A5D0FFF7F9FBC01B4045F5D9032091E7A1
:100B2C00032A02D113F0007FDFE7012A02D113F070
:100B3C00020FDAE713F4007FD7E7032B0AD1B3686F
:100B4C0003F00C030C2B8AD0FFF7DEFBC01B4045D7
:100B5C00F5D9E3E7012B10D1B36803F00C03042B98
:100B6C003FF47DAFFFF7D0FBC01B4045F4D9D5E770
:100B7C00FFF7CAFBC01B4045D0D8B36813F00C0F6D
:100B8C00F6D16CE71A6822F001021A601B68DA07CA
:100B9C007FF56CAF55E70549E0688B6823F4E0639B
:100BAC0003438B6066E700BF003C02400038024004
:100BBC004C3100082C00002008000020044B054A92
:100BCC009B68C3F30223D35C034A1068D840704778
:100BDC00003802405C3100082C000020044B054A10
:100BEC009B68C3F3C223D35C034A1068D840704798
:100BFC00003802405C3100082C000020B0F1804F1E
:100C0C0003680ED01E4A90420BD002F580629042CF
:100C1C0007D002F58062904203D002F57C429042EC
:100C2C0016D14A6823F07003B0F1804F43EA0203F7
:100C3C0015D0134A904212D002F5806290420ED029
:100C4C0002F5806290420AD002F57C42904206D0B6
:100C5C000C4A904203D002F58062904203D1CA68DC
:100C6C0023F4407313430A6923F080031343036096
:100C7C008B68C3620B68836201234361704700BFBA
:100C8C0000040040000C014010B50446F0B190F88F
:100C9C00393003F0FF021BB980F8382000F080FED9
:100CAC000223206884F83930211DFFF7A7FF0123A8
:100CBC00002084F83E3084F83A3084F83B3084F8D5
:100CCC003C3084F83D3084F8393010BD0120FCE70D
:100CDC0070477047036810B51A69044691070ED522
:100CEC00DA6892070BD56FF002021A6101220276C4
:100CFC009B6999075CD001F029FE002323762368B9
:100D0C001A69520710D5DA6850070DD56FF0040236
:100D1C001A61022222769B69204613F4407F4DD043
:100D2C0001F014FE0023237623681A6911070FD5EE
:100D3C00DA6812070CD56FF008021A6104222276C9
:100D4C00DB6920469B073FD001F000FE0023237691
:100D5C0023681A69D00610D5DA68D1060DD56FF064
:100D6C0010021A6108222276DB69204613F4407FB8
:100D7C0030D001F0EBFD0023237623681A69D207EB
:100D8C0008D5DA68D00705D56FF0010220461A6144
:100D9C0001F0B0FD23681A69510608D5DA685206CD
:100DAC0005D56FF0400220461A61FFF792FF10BD87
:100DBC0001F0CAFD2046FFF78BFF9EE701F0C4FD52
:100DCC002046FFF785FFADE701F0BEFD2046FFF79B
:100DDC007FFFBBE701F0B8FD2046FFF779FFCAE7BC
:100DEC000368DA6822F49072DA605A6922F0010220
:100DFC005A61026B012A02BFDA6822F01002DA6033
:100E0C00202380F83E3000230363704710B504465E
:100E1C000268C168136923F440530B431361836860
:100E2C000069D1680343606921F416410343E0690A
:100E3C0021F00C0103430B43D3605369A16923F4E4
:100E4C0040730B4353611A4B9A4220D1FFF7C6FEF5
:100E5C001923E1694343D4E90020B1F5004F4FF069
:100E6C00640117D14000B3FBF0F0B0FBF1F401FBCF
:100E7C001403DB003233B3FBF1F303F007015B0027
:100E8C0001EB041103F4F8730B44936010BDFFF7EE
:100E9C0095FEDDE78000B3FBF0F0B0FBF1F401FB55
:100EAC0014031B013233B3FBF1F303EB0413ECE734
:100EBC0000380140704710B5044640B390F83D30FF
:100ECC0003F0FF021BB980F83C20FFF7F3FF24234B
:100EDC00226884F83D30D368204623F40053D36055
:100EEC00FFF794FF236800201A6922F490421A61DC
:100EFC005A6922F02A025A61DA6842F40052DA6026
:100F0C002023206484F83D3084F83E3010BD01204D
:100F1C00FCE710B5044660B390F83D3003F0FF02D7
:100F2C001BB980F83C20FFF7C5FF2423226884F806
:100F3C003D30D368204623F40053D360FFF766FF9F
:100F4C00236800201A6922F490421A615A6922F02F
:100F5C0022025A615A6942F008025A61DA6842F474
:100F6C000052DA602023206484F83D3084F83E304F
:100F7C0010BD0120FCE790F83D30202B18D1A9B111
:100F8C00A2B190F83C30012B12D0C2840023828491
:100F9C00212201620168036480F83C3080F83D2016
:100FAC00CA68184642F08002CA6070470120704738
:100FBC000220704708B50023406AC385C38400F043
:100FCC00A3FE08BD704707B58168836AB1F5805FE1
:100FDC00026834D10169002934D15268C2F3080285
:100FEC0023F8022BC28D8362013A92B2C2851ABBDE
:100FFC000368D96821F02001D960D96821F4807187
:10100C00D960596921F001015961202180F83E1005
:10101C00016B012920D10263D96821F01001D9603C
:10102C001968C90605D501921A6801925B6801938B
:10103C00019B818DFFF7C6FF03B05DF804FB39B946
:10104C00016929B95268D2B21A70836A0133C9E7AF
:10105C00526802F07F02F7E700F050FEECE7000068
:10106C00036837B51A68044612F00F0FD9685D692A
:10107C000CD1950667D58D0665D590F83E30222BA0
:10108C005BD103B0BDE83040FFF79DBF05F0010018
:10109C0001F49075054356D0D50705D5CB0542BF55
:1010AC00236C43F001032364550704D518B1236C5A
:1010BC0043F002032364930704D518B1236C43F067
:1010CC0004032364150707D501F0200303431EBF57
:1010DC00236C43F008032364236C73B3920608D586
:1010EC008B0606D594F83E30222B02D12046FFF712
:1010FC006AFF236820465B69256C03F0400305F00A
:10110C0008051D431BD0FFF76BFE23685A69550673
:10111C0010D55A69A06B22F040025A6150B1534B62
:10112C004363FFF7C5F940B1A06B436B03B0BDE857
:10113C0030401847204600F0E7FD03B030BD00F00A
:10114C00E3FD2564F9E7206B012855D1D00653D572
:10115C00CD0651D5002101911A6801925A6801926D
:10116C00019A5A6912F040022AD0A06B02685268A8
:10117C0092B2002AE1D0A58D9542DED9E285826932
:10118C00202A15D0DA6822F48072DA605A6922F0CB
:10119C0001025A615A6922F040025A61202284F8F5
:1011AC003E202163DA6822F01002DA60FFF75DF965
:1011BC00E38DA18DC91A89B22046FFF703FFBCE766
:1011CC00E18D88B2E18D89B20029B6D0A18D091AC2
:1011DC0089B20029B1D0D86820F49070D8605869D1
:1011EC0020F001005861202084F83E002263DA6868
:1011FC0022F01002DA60DFE7100626D50D0624D5A2
:10120C0094F83D20212A98D1A168226AB1F5805F1B
:10121C0016D12169A1B932F8021BC1F3080159603A
:10122C002262E28C013A92B2E284002A85D1DA6819
:10123C0022F08002DA60DA6842F04002DA607CE781
:10124C00511C216212785A60EBE750067FF575AF9E
:10125C004A067FF572AFDA68204622F04002DA6067
:10126C00202384F83D3000F04CFD66E7C10F0008E8
:10127C0090F83C30012B11D02423026880F83D30CB
:10128C00D36823F00C0343F00803D360202380F8C9
:10129C003D30002380F83C301846704702207047E0
:1012AC0090F83C30012B11D02423026880F83D309B
:1012BC00D36823F00C0343F00403D360202380F89D
:1012CC003D30002380F83C301846704702207047B0
:1012DC0090F83D2090F83E0010437047C2858285FF
:1012EC008162034622220020186483F83C0083F8B4
:1012FC003E201B68DA6842F48072DA605A6942F068
:10130C0001025A61DA6842F02002DA60704770B468
:10131C0090F83E60202E10D161B15AB190F83C404B
:10132C00012C0AD0012480F83C400024046370BCDA
:10133C00FFF7D4BF012070BC70470220FBE7000010
:10134C0088B0072866D8DFE800F004111D29354164
:10135C004D59314B3148DA6942F00102DA61DB69EF
:10136C0003F001030093009B08B070472A4B2C48F4
:10137C00DA6942F00202DA61DB6903F002030193DD
:10138C00019BF1E7244B2748DA6942F00402DA6149
:10139C00DB6903F004030293029BE5E71E4B224832
:1013AC00DA6942F00802DA61DB6903F0080303939F
:1013BC00039BD9E7184B1D48DA6942F01002DA6139
:1013CC00DB6903F010030493049BCDE7124B184820
:1013DC00DA6942F04002DA61DB6903F040030593FD
:1013EC00059BC1E70C4B1348DA6942F08002DA61C5
:1013FC00DB6903F080030693069BB5E7064B0E48AA
:10140C00DA6942F02002DA61DB6903F0200307930A
:10141C00079BA9E70020A7E7003802400000024024
:10142C000004024000080240000C02400010024080
:10143C0000180240001C024000140240FEF764BF7A
:10144C00704708B5FEF754FFFEF7EFFFFFF7F8FF04
:10145C0008BD70470A4B82B05A6A42F080525A62F9
:10146C005A6A02F080520092009A1A6A42F0010203
:10147C001A621B6A03F001030193019B02B07047CF
:10148C00003802400C4BD3F8FC20D2015EBFD3F8DD
:10149C00FC2042F08072C3F8FC200022074B5A60FB
:1014AC001A6842F001021A6000BF00BF00BF586802
:1014BC00B0FA80F04009704700ED00E0001000E049
:1014CC0008B5FFF7C7FFFFF7DDFFFEF7F7FEFFF7E5
:1014DC00C0FFBDE8084000F08DBD91FAA1F3B3FA4E
:1014EC0083F391FAA1F130B5B1FA81F10325C46807
:1014FC005B0005FA03F3490024EA030302FA01F145
:10150C001943C16030BD431C04D00C3151F80C3C64
:10151C005A1C01D100207047834201F10C01F5D116
:10152C0001207047484B00F00F02B0F1FF3F2DE94E
:10153C00F04180460E4653F8225001F00707C0F3E5
:10154C00031403D19E21414800F0D2F82046FFF746
:10155C00F7FE95FAA5F3B3FA83F3032281685B00D7
:10156C0002FA03F321EA030395FAA5F1B1FA81F12A
:10157C0049008A401A4304468260032F35D8DFE8BD
:10158C0007F01D1D021D18F0080FC6F3062217D018
:10159C002B0A93FAA3F1B1FA81F193FAA3F34FF06A
:1015AC000F0CB3FA83F3406A89000CFA01F19B002B
:1015BC0020EA010102FA03F30B4363623B4619E094
:1015CC0095FAA5F1B1FA81F1036A0F20890000FAAE
:1015DC0001F123EA010195FAA5F3B3FA83F39B0019
:1015EC0002FA03F30B432362E8E7FB21174800F0F0
:1015FC007FF8002395FAA5F2B2FA82F20320216853
:10160C00520000FA02F221EA020195FAA5F2B2FAAE
:10161C0082F252009340013F0B43012F236005D807
:10162C00636832074CBF2B43AB436360C6F30112B4
:10163C00012A02D0022A18BF002229462046BDE802
:10164C00F041FFF74ABF00BF0C3100089C30000886
:10165C00431C06D17047834202D18968FFF762BFF1
:10166C000C310B685A1CF6D140F22911014800F0DC
:10167C003FB800BF9C3000080B685A1C01D10020F9
:10168C007047834201D1486870470C31F4E7431C22
:10169C0001D0FFF7F1BF002070474B6813B94FF032
:1016AC00FF307047834201D1086870470C31F4E772
:1016BC0008B1FFF7F2BF4FF0FF30704703460868E0
:1016CC00421C00D17047984201D1886870470C3198
:1016DC00F5E7431C01D0FFF7F1BF704703468B427F
:1016EC00084604D01BB100290CBF184600207047D7
:1016FC00FEE700000C4B1A6842F480721A6099687D
:10170C000A4A0A409A601A6822F0885222F00112A2
:10171C001A601A6822F480221A609A6822F47D02F8
:10172C009A600022DA607047003802400CC0FF88D3
:10173C000438704703688AB0B3F1804F17D13D4A23
:10174C00516A41F001015162526A02F001020192A8
:10175C00019A394A934238D1364B5A6A42F02002E8
:10176C005A625B6A03F020030693069B16E0334A29
:10177C00934215D002F5806293421CD0304A9342BA
:10178C0031D0304A9342E4D12A4B5A6A42F01002CB
:10179C005A625B6A03F010030593059B0AB070470D
:1017AC00244A516A41F002015162526A02F002026B
:1017BC000292029ACDE71F4A516A41F0040151622C
:1017CC00526A02F004020392039A1F4A934214D104
:1017DC00184B1A6A42F004021A621B6A03F00403E3
:1017EC000793079BDAE7134A516A41F008015162EB
:1017FC00526A02F008020492049A144A93420DD0E1
:10180C00134A9342CAD10B4B1A6A42F010021A6265
:10181C001B6A03F010030993099BBFE7054B1A6A77
:10182C0042F008021A621B6A03F008030893089B33
:10183C00B4E700BF00380240001400400004004030
:10184C00000C00400010004000080140000C01405A
:10185C00001001400368B3F1804F0CD124494A6A4F
:10186C0022F001024A62234A934221D1204A536A50
:10187C0023F0200310E0204A93420FD002F580623F
:10188C00934210D01D4A93421BD01D4A9342EAD179
:10189C00174A536A23F010035362704714494A6A7B
:1018AC0022F00202DEE712494A6A22F004024A627E
:1018BC00144A93420AD10E4A136A23F004031362AA
:1018CC0070470B494A6A22F008024A620E4A934258
:1018DC0003D00E4A934205D07047054A136A23F091
:1018EC000803ECE7024A136A23F01003E7E700BF92
:1018FC00003802400014004000040040000C00407E
:10190C000010004000080140000C01400010014094
:10191C0008B5431C014612D01C4B98422AD016D84D
:10192C00A3F50063984227D00CD8B0F1804F25D096
:10193C00A3F58063984223D01548FFF7D9FE6FF0CA
:10194C000D0008BD134B9842F6D12E20F9E7124B2F
:10195C00984217D009D8A3F57843984214D003F5D0
:10196C0074439842E8D11920EBE70C4B9842E3D131
:10197C001B20E6E72B20E4E71E20E2E71C20E0E733
:10198C001D20DEE71A20DCE72C20DAE700100040EF
:10199C006D310008000C0040000C014000100140AB
:1019AC0038B50446FFF7C6FE0068FFF7B1FFD4E96F
:1019BC001012FEF7C1FC2068FFF7AAFFFEF7EEFC41
:1019CC002068FFF7A5FF05462068FFF7A1FF8542B9
:1019DC000DD02068FFF79CFFD4E91012FEF7ACFC89
:1019EC002068FFF795FFBDE83840FEF7D7BC38BD3F
:1019FC002DE9F047044686B08846006D65491746C8
:101A0C001E46DDF83890FFF742FE63498246606D52
:101A1C00FFF73DFE0546BAF1000F00F0B880636D8C
:101A2C00013302D0002800F0B28029465046FFF75F
:101A3C0055FE2060002800F0AA80584B98423DD1FA
:101A4C0003F580335A6942F480425A615A6922F490
:101A5C0080425A611A6A42F480421A621B6A03F489
:101A6C0080430193019B2523A4F858304949206DEC
:101A7C00FFF7EEFD1DB14849606DFFF7E9FD94F8E5
:101A8C005920474B04F1040A43F822A02368002292
:101A9C00C4E901380C2394F958000121C4E90379F5
:101AAC00C4E9063266612262FEF746FC5046002D00
:101ABC0068D106B0BDE8F047FFF72BBA394B984216
:101ACC0015D103F5FA339A6942F400329A619A6996
:101ADC0022F400329A615A6A42F400325A625B6A0A
:101AEC0003F400330293029B4FF49373BCE72E4B29
:101AFC00984215D103F5F8339A6942F480229A6121
:101B0C009A6922F480229A615A6A42F480225A62BB
:101B1C005B6A03F480230393039B40F22723A3E720
:101B2C00224B984215D103F5F6339A6942F4002200
:101B3C009A619A6922F400229A615A6A42F400224C
:101B4C005A625B6A03F400230493049B4FF44C73B6
:101B5C008AE7174B984289D103F5F4339A6942F41A
:101B6C0080129A619A6922F480129A615A6A42F43C
:101B7C0080125A625B6A03F480130593059B40F252
:101B8C00314371E706B0BDE8F047FFF794B906B0F2
:101B9C00BDE8F087D43300087433000800380140E6
:101BAC00B40000200044004000480040004C0040BD
:101BBC000050004010B410B110BCFFF719BF10BC9E
:101BCC007047000008B5074B90F8592053F82200D5
:101BDC00FFF77EFB00F02200A0F12203584258418F
:101BEC0008BD00BFB400002008B5074B90F8592081
:101BFC0053F82200FFF76CFB00F02100A0F1210349
:101C0C005842584108BD00BFB400002070B50E46C4
:101C1C00054610B94FF0FF3070BDFFF7D3FF0446F7
:101C2C000028F7D1294611F85A3F0122337095F854
:101C3C005900034B53F82000FFF769FB2046EBE7F4
:101C4C00B400002038B50D460446B8B1FFF7BAFF12
:101C5C00A0B994F95800A564FEF7AEFB94F85900AE
:101C6C00074B04F15A0153F820000122FFF74FFBF8
:101C7C0094F95800BDE83840FEF790BB38BD00BF62
:101C8C00B400002038B515460446B8B1C16490F9CB
:101C9C005800FEF791FBB4F86A30216E9BB294F8B1
:101CAC0059001944064BAAB253F82000FFF763F908
:101CBC0094F95800BDE83840FEF770BB38BD00BF42
:101CCC00B400002048B1436D013306D190F859207F
:101CDC00024B53F82200FFF7CBBA7047B400002038
:101CEC0048B1436D013306D190F85920024B53F89B
:101CFC002200FFF7D5BA7047B4000020436C0438BB
:101D0C001847836C043818471FB5036804461868D5
:101D1C0010F0010013D0002200921A6800925B6848
:101D2C000093009B201FFFF74DFF40BB0122204674
:101D3C0004F1560104B0BDE81040FFF7E8BA196889
:101D4C0011F0020106D001901A6801925B680193B0
:101D5C00019BE7E71A6812F0040206D002911A6898
:101D6C0002925B680293029BDCE719680907D9D5DC
:101D7C0003921A6803925B680393039BD2E704B047
:101D8C0010BD000008B52520FEF73EFB024B18687D
:101D9C00BDE80840FFF764B9B4000020262008B560
:101DAC00FEF732FB034B586818B1BDE80840FFF74B
:101DBC0057B908BDB4000020272008B5FEF724FB56
:101DCC00034B986818B1BDE80840FFF749B908BD46
:101DDC00B400002008B53020FEF716FB024BD86883
:101DEC00BDE80840FFF73CB9B400002008B531202D
:101DFC00FEF70AFB024B1869BDE80840FFF730B943
:101E0C00B40000200268094B9A420DD103F5E2336D
:101E1C009A6942F000529A619A6922F000529A61D2
:101E2C005A6A22F000525A62704700BF0074004098
:101E3C0010B50C4986B00446FFF729FC019078B127
:101E4C0008492046FFF745FCC0F3C43002280CBFFC
:101E5C001021002101A8FEF7FAFA01A8FEF7E9FA11
:101E6C0006B010BD88310008F8B514490646FFF7D6
:101E7C000EFC00F001FC124D044655F8203073B9ED
:101E8C000E493046FFF703FC0746A42000F0D8FDAE
:101E9C000646394600F0A6FC55F824301E6055F86D
:101EAC0024301C6844B1204600F022FC2046BDE8DA
:101EBC00F840A42100F0C6BDF8BD00BFAC3100084D
:101ECC0014030020836810B5044613B103220146A5
:101EDC009847204610BD00000023012803F10102A1
:101EEC0002D013464008F8E71421DBB24B43044AF6
:101EFC00181D1044816811B113441B6918477047B1
:101F0C00C80000200120FEF7F9BA0220FEF7F6BA4D
:101F1C000420FEF7F3BA0820FEF7F0BA1020FEF703
:101F2C00EDBA38B505242025A8B2FEF7E7FA013C36
:101F3C004FEA4505F8D138BD38B506244FF4806515
:101F4C00A8B2FEF7DBFA013C4FEA4505F8D138BDE3
:101F5C000721204B06221975082183F82810092126
:101F6C0083F83C100A2183F8501017211A7083F85B
:101F7C006410002283F8781083F88C1083F8A0107A
:101F8C0083F8B4102821DA601A625A639A64DA650D
:101F9C001A67C3F88420C3F89820C3F8AC20C3F8A0
:101FAC00C02083F8C810C3F8D42083F8DC10C3F821
:101FBC00E82083F8F010C3F8FC2083F80411C3F870
:101FCC00102183F81811C3F8242183F82C11C3F8BD
:101FDC0038217047C800002038B5054CA4F5A07511
:101FEC00143C201DFFF76EFFAC42F9D138BD00BF89
:101FFC00080200201C2200B593B000210DEB02005A
:10200C0000F076FD14220021684600F071FD194A9B
:10201C0001211368022023F4C05343F400631360BE
:10202C000523CDE905134FF480334FF4801CCDE923
:10203C000E034FF4000305A8CDE910C3FEF7AAFA6E
:10204C0018B181210C48FFF753FB03230F22CDE974
:10205C000023002301216846CDE902330493FEF7E7
:10206C00EBFC18B18E210448FFF742FB13B05DF86E
:10207C0004FB00BF00700040343400080C480D49CC
:10208C000D4A002302E0D458C4500433C4188C42C7
:10209C00F9D30A4A0A4C002301E013600432A2422D
:1020AC00FBD3FFF727FB00F0E1FC00F0BFFC70470F
:1020BC000000002094000020B43700089400002099
:1020CC0068030020FEE70000C3B2322B2DE9F0417B
:1020DC000D462AD82E4A00F4E06052F823400443FF
:1020EC00621C53D02B4EC4F3031756F8273004F060
:1020FC000F0823FA08F3DB0710D520462649FFF713
:10210C0002FA18B32046FFF793FE012303FA08F2F4
:10211C0056F8273023EA020346F82730052D2FD82E
:10212C00DFE805F01E2A2426282C00F0C002C02A65
:10213C002CD1D42B2AD8194B00F03F0253F8222073
:10214C00134B00F4E06053F82240C8E720461449D2
:10215C00FFF7D9F90028D8D02046FFF785FED4E741
:10216C0000212046BDE8F041FFF7DCB91021F8E76B
:10217C002021F6E70321F4E70121F2E70921F0E73A
:10218C004921BDE8F0410748FFF7B2BABDE8F0813C
:10219C00003500083803002088310008AC340008F2
:1021AC00AC310008CC350008C3B2322B16D8164A15
:1021BC0000F4E06052F82330184303065EBF134B63
:1021CC00C0F3031253F82230114A00F00F0048BF3D
:1021DC00002352F82020A9B19A61704700F0C00288
:1021EC00C02A0CD1D42B0AD80A4B00F03F0253F86A
:1021FC002220054B00F4E06053F82230DCE74FF06E
:10220C00FF30DAE79A627047003500080C000020B6
:10221C000C310008AC340008FFF710B938B504468F
:10222C0048B1FFF70BF9054600F010FCFFF706F973
:10223C00431BA342F8D338BDB0F8FC30B0F8F8001B
:10224C00181A00F03F007047B0F8FC30B0F8F820D6
:10225C009BB293421ABFD0F8F030985C4FF0FF302D
:10226C00704790F8FA30B0F8FE00C0B2834227BF36
:10227C00C3F13F03C018C01A00F1FF30704707B517
:10228C0003688DF8071001225B680DF10701984770
:10229C0003B05DF804FB13B50DF107010446FFF71D
:1022AC00B5FC90B9B4F86830B4F86420013303F08D
:1022BC003F03934209D0B4F868209DF80700E16D04
:1022CC0092B29BB28854A4F8683002B010BD0000E2
:1022DC00B0F86A2038B5C36E134403F03F03A0F87E
:1022EC006A30B0F86A20B0F8663092B293421BD0D4
:1022FC00B0F86A20B0F86A4095B203F14002521B64
:10230C00534203F03F03A4B202F03F0258BF5A42BB
:10231C00C4F140039A4228BF1A460449C266FFF72B
:10232C00B1FC4FF0FF3038BD0020FCE7DD22000887
:10233C0003682DE9F0479B68044688461646984783
:10234C0001232374D4F8E830B4F8FA9001338246B0
:10235C00C9F1400904F1940708D194F804312BB168
:10236C000023384684F80431FFF7ACFC2368204680
:10237C009B6898470028F9D035464D4501D85545FE
:10238C0015D9D14528BFD14623684A4641465B68DA
:10239C0020469847236820469B689847B4F8FA2053
:1023AC00A5EB0905C8448246C2F14009E5E7B4F83B
:1023BC00FA20D4F8F4005319402B104419D82A46AB
:1023CC00414600F087FBA946B4F8FA3038461D4464
:1023DC0005F03F05A4F8FA50FFF706FC30B94A4661
:1023EC0038460B49C4F80091FFF74CFC3046BDE869
:1023FC00F087C2F140094A46414600F06BFBD4F825
:10240C00F400A5EB090208EB090100F063FBDBE724
:10241C00DD220008037C33B1B0F8FA20B0F8FE30AE
:10242C009BB29A42FAD17047914208BF4FF0FF31EC
:10243C0000F11103C0F8F0300023C0E9392100F19C
:10244C005102A0F8FC30C0E93D23A0F8FE307047E3
:10245C00CBB2322B08D80E4A01F4E06152F823308B
:10246C001943C0F8E810704701F0C002C02A0CD123
:10247C00D42B0AD8074B01F03F0253F82220044B0F
:10248C0001F4E06153F82230EAE74FF0FF31E8E75E
:10249C0000350008AC340008CBB2322B08D80E4AF9
:1024AC0001F4E06152F823301943C0F8E41070478E
:1024BC0001F0C002C02A0CD1D42B0AD8074B01F072
:1024CC003F0253F82220044B01F4E06153F8223010
:1024DC00EAE74FF0FF31E8E700350008AC340008BC
:1024EC0070B54FF47A7316460022C0E90123154BE0
:1024FC00044603604FF0FF33C0F8E830124B0D4632
:10250C00984211D1D421FFF7A3FFD321FFF7C4FFC9
:10251C00012E04BF4FF0FF33C4F8E8302046D4E955
:10252C003921FFF781FF70BD08492846FFF7C0F835
:10253C000749C4F8E8002846FFF7BAF8C4F8E400E5
:10254C00E6E700BFA8360008080200207433000834
:10255C00D4330008D0F8E83010B5013304460ED15E
:10256C000368DB68984794F8043143B9012304F1FC
:10257C00940084F80431BDE81040FFF7B1BB10BDE6
:10258C0002F00703023BDBB2042B2DE9F7430E46A6
:10259C00C0F8081196BF1E490024CC5C02F0300331
:1025AC00302B054680F8052126D14FF4C067013445
:1025BC0012F0080F14BF4FF400594FF00009082C0B
:1025CC0021D0092C21D040F2A1111248FFF790F82C
:1025DC0005F1940831463B4622464046CDF8009022
:1025EC00FFF7E8FA2846FFF7B5FF40460A4903B063
:1025FC00BDE8F043FFF726BB12F020071CBF4FF4D9
:10260C0080670134D4E70024E2E74FF48054DFE71D
:10261C009A36000832360008A322000810B504468A
:10262C00FFF798FFB4F8FC20B4F8F83092B29A4255
:10263C0017BFD4F8F0204FF0FF30D05C01331CBF33
:10264C0003F03F03A4F8F83010BD0000002202494B
:10265C000248FFF745BF00BF0044004008020020BD
:10266C00836810B504462BB103220146984700231A
:10267C00C4E9023310BD0000B0F1804F03461FD0F7
:10268C00174A90421ED002F5806290421CD002F58F
:10269C00806290421AD002F58062904218D04FF6B8
:1026AC00FF70104A934215D00F4A934214D00F4A30
:1026BC00934213D002F58062934208BF0820704702
:1026CC000020EEE70120ECE70220EDE70320EEE727
:1026DC00042070470520704706207047072070477C
:1026EC00000400400014004000080140000C0140B0
:1026FC00014670B5044651F80C0FFFF7BDFF0546B7
:10270C000846FFF7A7F80023084A04F1540642F8DC
:10271C002530A36004F1A405B54204D0103D284631
:10272C00FFF7D0FBF8E7204670BD00BF1403002074
:10273C0070B504460846FFF79FFF4FF6FF739842AB
:10274C000D46064603D14D212448FEF7D1FFE36820
:10275C001BB152212148FEF7CBFF214B04F108029B
:10276C0043F826200E23E560002504F10C06C4E98D
:10277C0013353046C4E90A55C4E90C55C4E90E5565
:10278C0084F82450256484F8445084F84550A4609F
:10279C00FEF7D0FF04F15400FFF762FF04F1640070
:1027AC00FFF75EFF04F17400FFF75AFF04F1840099
:1027BC00FFF756FF04F19400FFF752FF4FF6FF733B
:1027CC00C4E9055380233046C4E900552561E56111
:1027DC002362BDE87040FEF757BA00BFCC36000844
:1027EC0014030020002310B50446C365C366C367F9
:1027FC00C0F88C30C0F89C30C360FFF799FF2046BE
:10280C0010BD0000034B186810B10430FEF762BA1B
:10281C00704700BF14030020034B586810B10430FC
:10282C00FEF758BA704700BF14030020034B98689A
:10283C0010B10430FEF74EBA704700BF14030020ED
:10284C00034BD86810B10430FEF744BA704700BF90
:10285C0014030020034B186910B10430FEF73ABA88
:10286C00704700BF14030020034B586910B10430AB
:10287C00FEF730BA704700BF14030020034B986971
:10288C0010B10430FEF726BA704700BF14030020C5
:10289C00034BD86910B10430FEF71CBA704700BF67
:1028AC0014030020034B186A10B10430FEF712BA5F
:1028BC00704700BF14030020826810B50AB900F0FD
:1028CC00CFFBC368BDE810401847000010B50446A4
:1028DC0020B940F25A410648FEF70AFF2046FEF79F
:1028EC0027FF0068C36D13B15430FFF7E5FF10BD2F
:1028FC00CC360008FFF7EABF38B5054620B940F2E0
:10290C006D411048FEF7F4FE2B7E013B072B11D8CE
:10291C00DFE803F0150410111010101302242846E0
:10292C00FEF706FF240100685434204483680BB181
:10293C00FFF7C2FF38BD0324F1E70424EFE70124BD
:10294C00EDE700BFCC360008FFF7D6BFFFF7D4BFCA
:10295C0070B505460C46084649B1FDF7E9FB2B68F6
:10296C00024621462846BDE870405B68184770BD9A
:10297C0008B50249FFF7ECFF08BD00BF993000080D
:10298C0038B50546FFF7E4FF04462846FFF7F0FF8D
:10299C00204438BDFFF7F4BF10B50446FFF73CFCEC
:1029AC00E060236820465B699847002808DAFFF747
:1029BC0033FCE368C01AA3689842F2D34FF0FF309F
:1029CC0010BD2DE9F04107460C460D468E18B54258
:1029DC00A5EB040807D03846FFF7DEFF031E02DB29
:1029EC0005F8013BF3E74046BDE8F0812DE9F041E5
:1029FC000746884616461D4673B100243846FFF735
:102A0C00CBFF031E05DB434503D033550134A542F0
:102A1C00F4D12046BDE8F0811C46FAE708B5032046
:102A2C00FDF778FCBDE8084000F00EB808B5AFF330
:102A3C000080FDF7BFFBFDF7CDFB00F009F8FAE7CE
:102A4C0000F038B800F03EB8FEF73ABD7047000011
:102A5C0008B5044B2BB10448FFF7EEFB08B1AFF3FC
:102A6C00008008BD000000000802002070B50026A0
:102A7C000C4D0D4C641BA410A64209D100F0F4FAC5
:102A8C0000260A4D0A4C641BA410A64205D170BD49
:102A9C0055F8043B98470136EEE755F8043B984748
:102AAC000136F2E79C3700089C3700089C37000879
:102ABC00AC370008024B0146186800F089B800BF1B
:102ACC0030000020024B0146186800F019B800BF16
:102ADC00300000200A44914200F1FF3300D17047CE
:102AEC0010B511F8014B914203F8014FF9D110BD0B
:102AFC0003460244934200D1704703F8011BF9E7E7
:102B0C0038B50546002940D051F8043C0C1F002B69
:102B1C00B8BFE41800F0E2F81C4A136833B96360DC
:102B2C0014602846BDE8384000F0DEB8A34208D94E
:102B3C00206821188B4201BF19685B680918216055
:102B4C00EDE71A465B680BB1A342FAD9116850182D
:102B5C00A0420BD120680144501883421160E0D18F
:102B6C0018685B68014411605360DAE702D90C23E2
:102B7C002B60D6E7206821188B4201BF19685B686F
:102B8C000918216063605460CBE738BD58030020FE
:102B9C0070B50E4E0C463168054611B900F08CF834
:102BAC0030602146284600F087F8431C0AD0C41C2C
:102BBC0024F00304A04207D0211A284600F07CF828
:102BCC00013001D14FF0FF34204670BD5C03002072
:102BDC002DE9F041CD1C25F0030508350C2D38BF2F
:102BEC000C25002D074601DBA94205D90C23002634
:102BFC003B603046BDE8F0812E4E00F06FF8336834
:102C0C001C4634BB29463846FFF7C2FF431C04461A
:102C1C004DD134682646002E40D1236831463846C3
:102C2C0004EB030800F048F880453AD121680335DD
:102C3C006D1A25F0030508350C2D38BF0C253846C8
:102C4C002946FFF7A5FF01302BD023682B442360C6
:102C5C000EE02268521B1ED40B2A16D96119A3420E
:102C6C00256018BF5960636808BF316062514B60C2
:102C7C00384604F10B0600F037F826F00706231D42
:102C8C00F21AB6D09B1BA350B3E76268A3420CBFE9
:102C9C0032605A60ECE723466468B2E734467668E3
:102CAC00B9E70C2338463B6000F01EF8A1E725601D
:102CBC00DEE700BF5803002038B50023054D04465D
:102CCC0008462B60FDF7A8FA431C02D12B6803B110
:102CDC00236038BD60030020704770470148FFF740
:102CEC00FBBF00BF640300200148FFF7F6BF00BF25
:102CFC0064030020062008B500F02CF80120FDF735
:102D0C00A9FA1F2938B504460D4604D916230360C9
:102D1C004FF0FF3038BD426C12B152F821304BB934
:102D2C00204600F031F82A4601462046BDE83840DE
:102D3C0000F018B8012B0AD0591C03D116230360DC
:102D4C000120E7E70024284642F825409847002058
:102D5C00E0E70000024B01461868FFF7D2BF00BF46
:102D6C003000002038B50023064D044608461146B5
:102D7C002B60FDF771FA431C02D12B6803B1236061
:102D8C0038BD00BF60030020FDF76EBA2DE9F04797
:102D9C00089E0D4604468846002B4DD18A42944627
:102DAC0068D9B2FA82F252B101FA02F3C2F12001EF
:102DBC0020FA01F10CFA02FC41EA030894404FEAB4
:102DCC001C41B8FBF1F71FFA8CFE01FB178807FBBF
:102DDC000EF0230C43EA084398420AD91CEB030378
:102DEC0007F1FF3580F01E81984240F21B81023FB3
:102DFC0063441B1AB3FBF1F001FB103300FB0EFE16
:102E0C00A4B244EA0344A6450AD91CEB040400F11D
:102E1C00FF3380F00981A64540F2068164440238F4
:102E2C000021A4EB0E0440EA07401EB10023D4405D
:102E3C00C6E90043BDE8F0878B4208D9002E00F0AC
:102E4C00EE800021C6E900050846BDE8F087B3FA1C
:102E5C0083F100294AD1AB4202D3824200F2FC80BA
:102E6C00841A65EB030301209846002EE2D0C6E9D4
:102E7C000048DFE702B9FFDEB2FA82F2002A40F026
:102E8C009180A1EB0C0001214FEA1C471FFA8CFE2C
:102E9C00B0FBF7F307FB1300250C45EA00450EFBCE
:102EAC0003F0A84208D91CEB050503F1FF3802D248
:102EBC00A84200F2CE8043462D1AB5FBF7F007FB73
:102ECC0010550EFB00FEA4B244EA0544A64508D9F1
:102EDC001CEB040400F1FF3502D2A64500F2B680CB
:102EEC002846A4EB0E0440EA03409EE7C1F12007FC
:102EFC008B4022FA07FC4CEA030C25FA07FA4FEA3E
:102F0C001C49BAFBF9F820FA07F309FB18AA8D4003
:102F1C001FFA8CFE1D4300FA01F308FB0EF02C0C7B
:102F2C0044EA0A44A04202FA01F20BD91CEB040455
:102F3C0008F1FF3A80F08880A04240F28580A8F129
:102F4C0002086444241AB4FBF9F009FB104400FB9A
:102F5C000EFEADB245EA0444A64508D91CEB0404A8
:102F6C0000F1FF356CD2A6456AD90238644440EAB8
:102F7C000840A0FB0295A4EB0E04AC42C846AE463A
:102F8C0056D353D0002E69D0B3EB080264EB0E0479
:102F9C0022FA01F304FA07F71F43CC40C6E9007488
:102FAC00002147E70CFA02FCC2F1200125FA01F3DB
:102FBC004FEA1C4720FA01F195400D43B3FBF7F1A2
:102FCC0007FB11331FFA8CFE280C40EA034001FB6F
:102FDC000EF3834204FA02F408D91CEB000001F151
:102FEC00FF382FD283422DD902396044C01AB0FB6E
:102FFC00F7F307FB1300ADB245EA004503FB0EF0F7
:10300C00A84208D91CEB050503F1FF3816D2A842DB
:10301C0014D9023B6544281A43EA014138E731468A
:10302C00304607E72F46E4E61846F9E64B45A9D2A9
:10303C00B9EB020865EB0C0E0138A3E74346EAE74F
:10304C00284694E74146D1E7D0467BE764440238F2
:10305C0047E7023B65442FE7084606E73146E9E6B9
:10306C0008B5FFF747FE0000F8B500BFF8BC08BC78
:10307C009E467047F8B500BFF8BC08BC9E4670472A
:10308C0048656C6C6F00576F726C6464200D0A009D
:10309C00433A5C4A2D54616769745C61726475696A
:1030AC006E6F2D312E382E31385C706F72746162F8
:1030BC006C655C7061636B616765735C4569636FBC
:1030CC006E5C68617264776172655C73746D3332C7
:1030DC005C322E322E305C6C69627261726965737F
:1030EC005C537263577261707065725C7372635C6F
:1030FC0073746D33325C70696E6D61702E63000099
:10310C0001000000020000000400000008000000A4
:10311C0010000000200000004000000080000000B3
:10312C000001000000020000000400000008000084
:10313C000010000000200000004000000080000093
:10314C00000000000000000001020304060708094B
:10315C000000000001020304030406080C101820F0
:10316C003054494D3A20556E6B6E6F776E207469F2
:10317C006D6572204952516E000000000400000081
:10318C000074004003800000050000000074004043
:10319C0003000100FFFFFFFF000000000000000023
:1031AC00000000000000004012810000000100003F
:1031BC00000C0040128200000100000000000040E2
:1031CC001201010001010000000C0040120201007C
:1031DC00020000000000004012810100020100000A
:1031EC00000C0040128201000202000000080140A5
:1031FC0012830000030000000000004012010200D6
:10320C0003010000000C0040120202000302000047
:10321C0000080140120301000500000000000040FE
:10322C001281000006000000000400401282000021
:10323C0006010000000C0140128300000700000092
:10324C0000040040120201000701000000100140C0
:10325C00128300000F0000000000004012810000EB
:10326C001000000000040040128201001100000058
:10327C000004004012020200130000000000004095
:10328C001201010014000000000400401282000032
:10329C00150000000004004012020100160000009E
:1032AC0000080040128200001700000000080040D7
:1032BC0012020100180000000008004012820100F8
:1032CC0018010000000C01401283000019000000DE
:1032DC000008004012020200190100000010014019
:1032EC00128300001A00000000000040128101004F
:1032FC001B00000000000040120102001C00000036
:10330C00000C0140128300001D0000000008014069
:10331C00128300001E00000000080140120301008F
:10332C001F00000000100140128300002600000066
:10333C00000400401282000027000000000400403E
:10334C00120201002800000000040040128201005B
:10335C00290000000004004012020200FFFFFFFFE2
:10336C0000000000000000000300000000440040CA
:10337C00120700000A00000000380140120700008C
:10338C001700000000380140120700001B0000006D
:10339C0000480040120700002B000000004C0040C9
:1033AC00120800002B01000000480040120700002A
:1033BC00320000000050004012080000FFFFFFFF29
:1033CC00000000000000000002000000004400406B
:1033DC00120700000900000000380140120700002D
:1033EC001600000000380140120700001A0000000F
:1033FC0000480040120700002A000000004C00406A
:10340C00120800002A0100000048004012070000CA
:10341C002C0000000050004012080000FFFFFFFFCE
:10342C000000000000000000433A5C4A2D54616724
:10343C0069745C61726475696E6F2D312E382E3132
:10344C00385C706F727461626C655C7061636B6127
:10345C006765735C4569636F6E5C68617264776104
:10346C0072655C73746D33325C322E322E305C7646
:10347C00617269616E74735C53544D33324C3178A4
:10348C00785C4C313532524554365C7661726961E8
:10349C006E745F4C313532524554362E6370700069
:1034AC002D0000002E0000002F0000003000000056
:1034BC0031000000320000000B0000000C00000086
:1034CC001B0000001C000000220000002500000072
:1034DC0028000000290000002A0000002B0000003A
:1034EC002C000000270000000D000000010000006F
:1034FC000000000003000000020000000A000000B1
:10350C001300000015000000140000001A00000059
:10351C000800000009000000270000001600000051
:10352C000700000006000000050000001900000064
:10353C00180000002A0000002C0000000D00000004
:10354C000E0000000F000000170000002D0000000E
:10355C002E0000002F000000700000007100000021
:10356C0022000000230000002B00000032000000AD
:10357C0029000000280000002600000025000000A3
:10358C000C0000000B0000001C0000001B000000E1
:10359C0012000000110000001F0000001E000000BF
:1035AC001D000000240000000000000001000000CD
:1035BC0004000000100000002100000020000000AA
:1035CC00433A5C4A2D54616769745C617264756935
:1035DC006E6F2D312E382E31385C706F72746162C3
:1035EC006C655C7061636B616765735C4569636F87
:1035FC006E5C68617264776172655C73746D333292
:10360C005C322E322E305C636F7265735C61726457
:10361C0075696E6F5C776972696E675F64696769FB
:10362C0074616C2E6300433A5C4A2D546167697473
:10363C005C61726475696E6F2D312E382E31385C79
:10364C00706F727461626C655C7061636B616765ED
:10365C00735C4569636F6E5C6861726477617265F7
:10366C005C73746D33325C322E322E305C636F724D
:10367C0065735C61726475696E6F5C4861726477C6
:10368C0061726553657269616C2E6370700006001F
:10369C000700080000000000000000008B2200085A
:1036AC003D2300086F220008212400084522000851
:1036BC002926000855220008CF290008F9290008FE
:1036CC00433A5C4A2D54616769745C617264756934
:1036DC006E6F2D312E382E31385C706F72746162C2
:1036EC006C655C7061636B616765735C4569636F86
:1036FC006E5C68617264776172655C73746D333291
:10370C005C322E322E305C636F7265735C61726456
:10371C0075696E6F5C486172647761726554696D2E
:10372C0065722E6370700000000000000000000045
:10373C00000000000000000000000000000000007D
:10374C00000000000000000000000000000000006D
:10375C00000000000000000000000000000000005D
:10376C00000000000000000000000000000000004D
:10377C00000000000000000000000000000000003D
:08378C00000000000000000035
:0837940004F6FF7F01000000B4
:10379C00292A0008A50100085D1F00085926000809
:0837AC0081010008E51F00087F
:1037B4006803002001000000100000000000024027
:1037C4000004024000080240000C024000100240C5
:1037D40000180240001C02400014024068FF1F0051
:1037E400340000200000000054370008743700083B
:1037F4003437000800000000000000000000000052
:1038040000000000000000000000000000000000B4
:1038140000000000000000000000000000000000A4
:103824000000000000000000000000000000000094
:103834000000000000000000000000000000000084
:043844000000000080
:040000050800208946
:00000001FF
